:020000040800F2
:100000000050002075540008BB540008BD5400087F
:10001000BF540008C1540008C35400080000000089
:10002000000000000000000000000000C5540008AF
:10003000C754000800000000C9540008CB54000851
:10004000B9540008B9540008B9540008B95400085C
:10005000B9540008B9540008594A0008994A0008E0
:10006000B9540008B9540008B9540008B95400083C
:10007000B9540008B9540008B9540008B95400082C
:10008000B9540008B9540008B9540008B95400081C
:10009000B9540008B9540008B9540008B95400080C
:1000A000B9540008B9540008B9540008B9540008FC
:1000B000B9540008B9540008B9540008B9540008EC
:1000C000B9540008B9540008B9540008B9540008DC
:1000D000B9540008B9540008B9540008B9540008CC
:1000E000B9540008B9540008B954000800000000D1
:1000F0000000000000000000000000000000000000
:0C01000000000000000000005FF808F1A3
:100110000348044B834202D0034B03B11847704796
:10012000E4010020E4010020000000000548064929
:100130000B1AD90F01EBA301491002D0034B03B1F5
:1001400018477047E4010020E4010020000000008F
:1001500010B5064C237843B9FFF7DAFF044B13B10F
:100160000448AFF300800123237010BDE401002098
:10017000000000006856000808B5044B1BB1044994
:100180000448AFF30080BDE80840CFE7000000005E
:10019000E80100206856000881F0004102E000BF3D
:1001A00083F0004330B54FEA41044FEA430594EA37
:1001B000050F08BF90EA020F1FBF54EA000C55EA72
:1001C000020C7FEA645C7FEA655C00F0E2804FEA43
:1001D0005454D4EB5555B8BF6D420CDD2C4480EA25
:1001E000020281EA030382EA000083EA010180EA55
:1001F000020281EA0303362D88BF30BD11F0004FA3
:100200004FEA01314FF4801C4CEA113102D04042D8
:1002100061EB410113F0004F4FEA03334CEA133313
:1002200002D0524263EB430394EA050F00F0A7802B
:10023000A4F10104D5F1200E0DDB02FA0EFC22FA26
:1002400005F2801841F1000103FA0EF2801843FA1A
:1002500005F359410EE0A5F120050EF1200E012A0B
:1002600003FA0EFC28BF4CF0020C43FA05F3C01849
:1002700051EBE37101F0004507D54FF0000EDCF1C2
:10028000000C7EEB00006EEB0101B1F5801F1BD36B
:10029000B1F5001F0CD349085FEA30004FEA3C0C6F
:1002A00004F101044FEA445212F5800F80F09A8065
:1002B000BCF1004F08BF5FEA500C50F1000041EB69
:1002C000045141EA050130BD5FEA4C0C404141EB6D
:1002D0000101013C28BFB1F5801FE9D291F0000F68
:1002E00004BF01460020B1FA81F308BF2033A3F117
:1002F0000B03B3F120020CDA0C3208DD02F1140C0E
:10030000C2F10C0201FA0CF021FA02F10CE002F148
:100310001402D8BFC2F1200C01FA02F120FA0CFC41
:10032000DCBF41EA0C019040E41AA2BF01EB04518A
:10033000294330BD6FEA04041F3C1CDA0C340EDC88
:1003400004F11404C4F1200220FA04F001FA02F3CB
:1003500040EA030021FA04F345EA030130BDC4F189
:100360000C04C4F1200220FA02F001FA04F340EA7E
:100370000300294630BD21FA04F0294630BD94F02F
:10038000000F83F4801306BF81F480110134013D16
:100390004EE77FEA645C18BF7FEA655C29D094EA87
:1003A000050F08BF90EA020F05D054EA000C04BF05
:1003B0001946104630BD91EA030F1EBF00210020F0
:1003C00030BD5FEA545C05D14000494128BF41F08F
:1003D000004130BD14F580043CBF01F5801130BDF3
:1003E00001F0004545F0FE4141F470014FF000007E
:1003F00030BD7FEA645C1ABF194610467FEA655C2F
:100400001CBF0B46024650EA013406BF52EA0335D0
:1004100091EA030F41F4002130BD00BF90F0000FBE
:1004200004BF0021704730B54FF4806404F13204FA
:100430004FF000054FF0000150E700BF90F0000FB3
:1004400004BF0021704730B54FF4806404F13204DA
:1004500010F0004548BF40424FF000013EE700BFAA
:1004600042004FEAE2014FEA31014FEA02701FBF3A
:1004700012F07F4393F07F4F81F06051704732F06C
:100480007F4208BF704793F07F4F04BF41F40021C3
:10049000704730B54FF4607401F0004521F0004121
:1004A0001CE700BF50EA010208BF704730B54FF0AB
:1004B00000050AE050EA010208BF704730B511F0AC
:1004C000004502D5404261EB41014FF4806404F1E4
:1004D00032045FEA915C3FF4D8AE4FF003025FEA6A
:1004E000DC0C18BF03325FEADC0C18BF033202EBEE
:1004F000DC02C2F1200300FA03FC20FA02F001FA48
:1005000003FE40EA0E0021FA02F11444BDE600BFEA
:10051000830730B548D0541E002A3FD00346CAB2E4
:1005200001E0013C3AD303F8012B9D07F9D1032CDC
:100530002DD9CDB245EA05250F2C45EA054536D91A
:10054000A4F1100222F00F0C03F1200EE6444FEA52
:10055000121C03F1100242E9045542E9025510321F
:100560007245F8D10CF1010214F00C0F03EB0212EA
:1005700004F00F0C13D0ACF1040323F00303043395
:10058000134442F8045B9342FBD10CF003042CB1FA
:10059000CAB21C4403F8012B9C42FBD130BD644617
:1005A0001346002CF4D1F9E703461446BFE71A4678
:1005B000A446E0E7002B2DE9F0479246B4BF2D2278
:1005C000002288B0149EB8BF03F100491C46DDE943
:1005D0001217B8BF4C46662E109D0A7019D0462ED1
:1005E00017D026F02003452B5246029735D0022122
:1005F000009107A9049106A923460195039100F0F3
:10060000FDFD672E814634D1119BDB0733D4079B58
:100610001BE00321009107A9049106A92346524635
:10062000CDE90157039100F0E9FD814699F80030CA
:100630004619302B2CD03D683544504621460022C7
:10064000002304F0EBF8C0B12B464846159AA3EB03
:100650000903136008B0BDE8F0870221009107A9E3
:100660000491013506A923460195039100F0C6FDCA
:100670008146472EC8D04D44DFE7079B9D42E4D911
:1006800030215A1C07921970079BAB42F9D3DCE763
:10069000504621460022002304F0C0F80028CAD1A9
:1006A000C5F101053D60C7E70029B4BF2D232B2309
:1006B00070B5B8BF4942092982B0027000F1020E3C
:1006C000437030DD0DF1070423461D4E0D469C4658
:1006D00086FB0123CA17C2EBA30202EB8203A1EB44
:1006E000430101F13003632D0CF8013C11460CF17C
:1006F000FF33EBDC3031ACF10202C9B2944203F8B3
:10070000011C1BD9724601E013F8011BA34202F839
:10071000011BF9D10DF10903A3EB0C0CF444ACEB74
:10072000000002B070BD3023F44619440CF8023BBF
:100730008EF80110ACEB000002B070BDF446F9E792
:10074000676666662DE9F04F91B00C46DDF868B03B
:1007500016461F46054601F0D7FC036818460A9363
:1007600000F086FC00230E9323680B900993DBF8BE
:10077000003094F81890073323F00703D3F804A04F
:10078000D3F80080514640460833CBF800302AF0B9
:10079000004BC4E912014FF0FF325946994B04F067
:1007A0006FF848B9404659464FF0FF32954B04F078
:1007B00049F8002800F09E80424640465346514684
:1007C00004F05EF8002840F0418263685A1C31D082
:1007D000B9F1670F70D0B9F1470F6DD00999009347
:1007E00041F4806121600191002106910EA90591DB
:1007F0000DA903910DF1330142460291534628465B
:10080000CDF81090FFF7D6FEB9F1650F80460D992F
:1008100039D84A46013904F150000D91FFF744FFE1
:100820000E9A82461318012A236140F3898101330D
:10083000236139E0062363600999009341F48061E4
:1008400021600191002106910EA905910DA9039146
:100850000DF13301424653462846CDF810900291DF
:10086000FFF7A8FE09F0DF03472B804640F0078121
:100870000D99C81C80F2FC80A9F102095FFA89F980
:10088000B9F1650FC5D9B9F1660F00F0FA800E9B7A
:100890008B4200F3018123682161DB0701D54B1CEA
:1008A00023614FF0000AA1659DF83330002B3AD048
:1008B0002D2384F8433036E0002B00F02581099980
:1008C000009341F4806121600191002106910EA9FD
:1008D00005910DA903910DF1330142460291534652
:1008E0002846CDF81090FFF765FE0D998046C81C8C
:1008F000C2DBBDE0404651460022002303F098FFD2
:1009000010B12D2384F84330099B3F4823F00403A2
:100910002360032323613D4B4FF0000AB9F1470FD9
:1009200094BF9846804633462146284600970FAA32
:1009300000F0B2F9013025D0236858052DD4424685
:10094000314628462369B84701301BD0236813F08D
:10095000020FE0680F9B1AD0C21A002A17DD4FF071
:10096000000804F1190904E0E0680F9BC21A42452F
:100970000DDD01234A4631462846B847013008F1CB
:100980000108F1D14FF0FF3011B0BDE8F08F98426F
:10099000B8BF184611B0BDE8F08FB9F1650F39D96D
:1009A000D4E912010022002303F038FF00287BD095
:1009B000012331462846164AB8470130E2D0DDE926
:1009C0000D239A4202DB2368D907C0D5DDE90A234B
:1009D00031462846B8470130D4D00E9B012BB5DDF7
:1009E0004FF0000804F11A0903E00E9B013B434558
:1009F000ACDD01234A46314628469844B8470130C9
:100A0000F3D1BFE7FFFFEF7F3861000834610008D2
:100A1000446100080E9A012A79DD012342463146DD
:100A20002846B8470130ADD0DDE90A2331462846D3
:100A3000B8470130A6D0D4E912010022002303F008
:100A4000EDFE002877D00E9B012B6ADD4FF00008E9
:100A500004F11A0903E00E9B013B434561DD0123CC
:100A60004A46314628469844B8470130F3D189E7D1
:100A7000636899423FF700AF4FF0670907E70D99A8
:100A8000FEE6002961DD63682161002B00F08E80A5
:100A900001330B44236104E70029CCBF0122C1F1DB
:100AA000020213442361FCE60D9B002B55DD0E9BD7
:100AB000D4F858A05345A8BF5346002B9B4608DDE9
:100AC000424631462846B84701303FF45BAFD4F880
:100AD00058A02BEAEB731A46AAEB0303002B72DD36
:100AE0004FF00009924604F11A0B04E0A36DA3EB4A
:100AF0000A024A4566DD01235A4631462846994492
:100B0000B8470130F2D13DE70123636094E6DB078B
:100B100083D44246012331462846B84701303FF48A
:100B200031AF53463146284604F15002B8470130F0
:100B30007FF40CAF26E70E9B08F10102013BEAE7C8
:100B40002268D2077FF5B0AE71E66368002B32D120
:100B50002268D2072FD40123A4E701233146284677
:100B60004A4AB84701303FF40DAFDDE90D23134386
:100B700023D0DDE90A2331462846B84701303FF447
:100B800001AF0D9B002B77DA4FF0000904F11A0A30
:100B900003E00D9B5B424B456EDD0123524631461F
:100BA00028469944B8470130F3D1EBE62268D007D4
:100BB0007FF577AE6CE7023374E72368DA077FF5D9
:100BC000C6AED6E79A46DDE90D218A4202DB2368EC
:100BD000D80709D5DDE90A2331462846B847013050
:100BE0003FF4D0AEDDE90D21A1EB0A098A1A914547
:100BF000A8BF9146B9F1000F0BDD4B4631462846A0
:100C000008EB0A02B84701303FF4BCAEDDE90D3213
:100C1000D21A29EAE979A2EB0903002B7FF796AEF5
:100C20004FF0000804F11A0A07E0DDE90D239B1AD2
:100C3000A3EB090343457FF789AE012352463146B2
:100C400028469844B8470130EFD19BE6BAF1000F2F
:100C5000BCBF2D2384F84330099B0D4A23F00403C5
:100C60002360032323610B4B4FF0000AB9F1470FB8
:100C700094BF9046984656E64246314628460E9B1B
:100C8000B84701307FF462AE7CE600BF44610008E3
:100C90003C610008406100082DE9F04791461E467E
:100CA0000A698B680C469A42B8BF1A46C9F80020F8
:100CB00091F843300546DDF8208013B10132C9F8C0
:100CC0000020226891065DD5D9F800300233C9F8BA
:100CD0000030226812F0060F11461ED1E168CB1ACF
:100CE000002BD8BF114618DD002704F1190A06E0D1
:100CF000D9F80030E268A2EB030CBC450CDD0123FF
:100D0000524631462846C047013007F10107EFD16E
:100D10004FF0FF30BDE8F087216894F84330003B86
:100D200018BF01238A060AD53021E21882F8431041
:100D300094F845105A1C2244023382F8431031467D
:100D4000284604F14302C0470130E1D0236803F094
:100D50000603042B1DD0A3682269934225DD0027DA
:100D60009B1A1F4404F11A09002401E0BC421CDA5A
:100D700001234A4631462846C047013004F10104A8
:100D8000F4D1C5E712F0060F12D0003B18BF0123C3
:100D9000D5E7D9F80030E1682269C91AA36821EAC9
:100DA000E1779342DCDC0029DCDC0020BDE8F08741
:100DB000E168D9F80030CB1A002BD8BF114693DC7C
:100DC000ABE700BF2DE9F04317460A7E85B00C461D
:100DD000064698460C9D01F1430C002A33D0A2F13F
:100DE0005803D9B2202967D8202B65D8DFE813F043
:100DF000DD0064006400640064006400640064005A
:100E0000640064006400A3006E0064006400640079
:100E100064006E00640064006400640021007F00D0
:100E2000BF0064006400AE0064007F0064006400E2
:100E3000E40023681A0640F102812B686269191DDB
:100E400029601B681A600023E14623613B46214666
:100E50003046CDF8008003AAFFF71EFF013020D0F6
:100E60004A46394630462369C047013019D02368C5
:100E7000E0689B07039919D5431A002B16DD00255E
:100E800004F1190904E0E0680399431AAB420DDD4F
:100E900001234A4639463046C047013005F1010575
:100EA000F1D14FF0FF3005B0BDE8F0838842B8BF04
:100EB000084605B0BDE8F083012384F8422004F120
:100EC00042092361002384F84330BFE723681906F1
:100ED00002D45A0600F1BF8029680A6804312960EB
:100EE0001146002A6ADB0A25DFF87CE110E023685E
:100EF000180640F19A802B68191D296019686F2A1D
:100F00000CBF08250A25DFF860E1002384F8433090
:100F10006268002AA2607DDB236823F0040323605B
:100F2000002959D1002A77D1E146082D63D0ACEBD6
:100F3000090323618AE701222B6804F14209196839
:100F400004332B6084F842102261BBE72B68002138
:100F50001A1D2A60D3F800906268484601F0ECF848
:100F600000287FD0A0EB090060602061AAE7236819
:100F700043F0200323607822DFF8F0E084F8452076
:100F80002A68111D2960190642D45D0640D51188D2
:100F9000D80744BF43F020032360002943D12368CE
:100FA000102523F020032360AFE75823DFF8B8E0D3
:100FB00084F845302368E3E72368DCE72D2284F8D2
:100FC000432062684942002AA26002DB23F0040346
:100FD00023600A25DFF890E0E146B1FBF5F30A460D
:100FE00005FB131019461EF80030AA4209F8013D0E
:100FF000F3D2082D9BD12368D90798D5626823695D
:101000009A4294DC302309F1FF3989F800308EE7E9
:101010001168BDE70029DFD19EF8003004F14209D4
:1010200084F8423081E710256FE713F0400F2B68FA
:1010300003F1040129600CBF196819885FE713F0F8
:10104000400F2B68626903F1040129601B6814BF1B
:101050001A801A60F7E62A68B2F9001004322A6092
:101060000A463EE7606880E7486100085C61000866
:1010700020F0030110F00300C0F1000051F8043B20
:1010800000F1040C4FEACC0C6FF000021CBF22FAF6
:101090000CF213434FF0010C4CEA0C2C4CEA0C4CB4
:1010A000A3EB0C0222EA030212EACC1204BF51F8AD
:1010B000043B0430F4D0C2F1000102EA0102B2FAAA
:1010C00082F2C2F11F0200EBD20070470000000064
:1010D0002DE9F04F03690C6985B0A342C0F2898005
:1010E000013C01F11405A30000F11408019355F827
:1010F000243058F8242001338A469A4208EB8401B0
:101100008146B2FBF3F605EB840702913AD3002146
:10111000AE4640460A46A34603955EF8045B046863
:10112000ABB206FB03132D0C190C06FB05119BB289
:10113000D21A1FFA84FC94448AB2C2EB144202EB26
:101140002C421FFA8CFC4CEA0243774540F8043BE2
:101150004FEA11414FEA2242DFD2019B5C4658F828
:101160000330039D73B9029B043B984504D307E009
:10117000984504F1FF3403D253F80429002AF7D02C
:10118000C9F810405146484601F094FB00282CDB7A
:1011900040460023013655F8041BD0F800C08AB23F
:1011A0009A1A1FFA8CFE0B0C7244C3EB1C4303EB20
:1011B000224392B242EA0342AF4240F8042B4FEA84
:1011C0002343E8D258F8242008EB84036AB9043B8F
:1011D000984504D307E0984504F1FF3403D253F84F
:1011E0000429002AF7D0C9F81040304605B0BDE800
:1011F000F08F002005B0BDE8F08F00BF2DE9F04F63
:1012000090469946466A99B00546CDE90289259CE3
:10121000002E00F00D83316849B1012372689340BC
:101220004A608B6001F086F800226B6A1A60B9F19F
:10123000000AB4BF012300232360754BBCBF2AF012
:10124000004ACDF80CA033EA0A0300F0AA80DDE9D9
:1012500002341846214600220023CDE9080103F09C
:10126000DDFA074670B10123249A1360269B002BF8
:1012700000F0F78267481860431E0493049819B081
:10128000BDE8F08F16AB019317AB00932846DDE95C
:10129000082301F05FFC5FEA1A56044640F097808D
:1012A000DDE916763E4406F23240202840F3C8833A
:1012B000C0F140000AFA00FA06F2124028FA00F0E3
:1012C0004AEA0000FFF7AAF80123013E1093A1F1BA
:1012D000F8710022504BFEF763FF47A3D3E90023C8
:1012E00003F034F846A3D3E90023FEF75BFF804602
:1012F00030468946FFF7A2F843A3D3E9002303F061
:1013000025F802460B4640464946FEF74BFF80460D
:10131000894603F0CBFA0022834600234046494623
:1013200003F086FA002840F08F82BBF1160F00F21E
:101330007282DDE90801394B03EBCB03D3E90023CB
:1013400003F076FA00286FD00023BE1B0D93731EA6
:101350000BF1FF3B059300F1658200230A93BBF17B
:10136000000F68DA0A9BCDF818B0A3EB0B030A93C1
:10137000CBF100030C93229B4FF0000B092B63D899
:10138000052B40F35B830026043B2293229B023B08
:10139000032B00F27E86DFE813F074047104680406
:1013A000490442F20F73249ACAF3130A13605AEAEB
:1013B00008031AD1269B002B00F06186184B04937A
:1013C0000833269A0498136019B0BDE8F08FDDE960
:1013D0000812C2F31303084643F07F511097A6F298
:1013E000FF36169F41F4401173E7269B002B40F017
:1013F00000840C4B049341E761436F63A787D23F9E
:10140000B3C8608B288AC63FFB799F501344D33FF3
:101410000000F07F456100080000F83F9856000882
:10142000706100087C610008BE1B731E059300F10B
:10143000C6840D900A90059B5B44CDE9053B0023D3
:101440000C93229B092B9BD9002322934FF0FF334F
:101450000126079300230B96239300216B6A5960A2
:10146000079B1193284600F025FF0490002800F008
:1014700019866B6A049A1A60079B0E2B00F214817E
:10148000002E00F011810699002940F36C84AF4BC7
:1014900001F00F0203EBC2030A46D3E900674FEAEB
:1014A0002118D10540F12584DDE90801A84B4FF052
:1014B000030AD3E9082303F073F8CDE90E0108F01D
:1014C0000F08B8F1000F13D0DFF8849218F0010F65
:1014D00009D0D9E900233046394602F037FF0646E5
:1014E0000F460AF1010A5FEA680809F10809EDD11F
:1014F000DDE90E0132463B4603F052F8804689464C
:101500000D9B43B1002240464946924B03F090F9AF
:10151000002840F045855046FEF790FF42464B4676
:1015200002F014FF8C4B0022FEF73CFEA1F1507339
:10153000CDE90E010F93079B002B00F09780069BCF
:101540001393079B12930B9B002B00F0BD84129A00
:101550007E4B002003EBC20353E902237F4903F0D3
:101560001FF8DDE90E23FEF71BFECDE90E0149460B
:10157000404603F09BF90746FEF760FF02460B4624
:1015800040464946FEF70CFEDDE90E23049E303747
:1015900006F8017B8046894603F04AF9002840F0AE
:1015A0004385CDF854B01495DDE90EAB0027129DAC
:1015B0000E942AE00137AF4280F23E8550465946EC
:1015C0000022674B02F0C2FE0022654B82468B462A
:1015D0004046494602F0BAFE8946804603F066F965
:1015E0000446FEF72BFF02460B4640464946FEF7EF
:1015F000D7FD303452465B4606F8014B804689469B
:1016000003F016F9002840F00D8542464B460020B5
:101610005049FEF7C5FD52465B4603F009F9002824
:10162000C8D0DDE913350E9C049A069302E0B2425D
:1016300000F0DD84B24616F8013D392BF7D00133B6
:10164000DBB23370069B01330693DAE15046FEF7B6
:10165000F5FE42464B4602F079FE3F4B0022FEF774
:10166000A1FDA1F15073CDE90E010F93404649460B
:1016700000223C4BFEF794FDDDE90E894B464246C5
:1016800006460F4603F0F2F88146002840F0BF847A
:10169000DDE90E01024601F100433046394603F010
:1016A000C7F8002840F05683179B002BC0F28C80AF
:1016B000069A0E2A00F38880244B03EBC203D3E979
:1016C00000AB239B002B1BDA079B002B18DC40F0A0
:1016D0003F830022234B5046594602F037FE024614
:1016E0000B46DDE9080103F0ADF8DDF81C904E462D
:1016F000002800F0DE82239BDDF81080DF43E0E26B
:101700005246DDE908785B463846414602F048FF1C
:1017100003F0CCF881460290FEF790FE52465B46FD
:1017200002F014FE049E0B46024641463846FEF780
:1017300037FD09F1300306F8013B079B012B00F050
:101740006E8301279946029405952AE09856000871
:10175000885700080000F03F00001C400000E03FF8
:10176000000024400000144052465B4620462946B3
:1017700002F016FF03F09AF88046FEF75FFE52462D
:101780005B4602F0E3FD01370B4602462946204640
:10179000FEF706FD08F130034F4506F8013B00F067
:1017A0003A830022B44B02F0D1FD0022002304460C
:1017B0000D4603F033F80028D6D0029C059D069B09
:1017C000B246013306931CE10B9A002A4FD0229AAD
:1017D000012A40F3A682079B03F1FF380C9B434587
:1017E00080F284820C9BCDF83080A8EB03034FF08D
:1017F00000089B44079B002BC0F24983059A1A44BA
:1018000005920A9A17461A440A920121284600F0C6
:10181000A9FE06462FE00123BE1B0D93731E059300
:101820007FF59BADC6F101030A930023059396E56E
:10183000102000F071FC6862002800F02484C0E9E8
:1018400001660660C660F2E45846FEF7F7FD4246C0
:101850004B4602F0E3FF00287FF467AD0BF1FF3B3E
:1018600063E5864B0493049819B0BDE8F08FDDF86A
:101870003080DDE90A76002F0CDD059900290B4642
:1018800008DDB942A8BF3B460A9AFF1AD21ACB1A02
:101890000A9205930C9BE3B10B9B002B00F05C823A
:1018A000B8F1000F10DD31464246284600F01EFF19
:1018B000064622463146284600F06AFE0346214687
:1018C00028461C4600F036FD0C9BB3EB080240F0A6
:1018D000D8820121284600F045FEBBF1000F814669
:1018E00000F3B380229B012B40F388814FF0000A64
:1018F0000120BBF1000F40F0B480059A104410F0B5
:101900001F0000F09280C0F12003042B40F3D1832C
:101910000A9BC0F11C00034402440A930744059249
:101920000A9B002B05DD21461A46284600F04EFF93
:101930000446059B002B05DD49461A46284600F063
:1019400045FF81460D9B002B40F03881079B002B03
:1019500040F31E810B9B002B40F09F80069B0133C0
:1019600006930127DDF81080DDF81CA007E0214672
:1019700000230A22284600F001FD044601374946AB
:101980002046FFF7A5FB574500F1300308F8013B5F
:10199000EDDB079A0027002ACCBF93464FF0010BDE
:1019A000049A9344214601222846029300F00EFF38
:1019B0004946044600F07EFF002840F3A7811BF84B
:1019C000013C049A0BF1FF3B04E05A4500F0B98159
:1019D0001BF8013D392B0BF1010AF6D001338BF8CE
:1019E00000304946284600F0A5FC56B12FB1B74259
:1019F00003D03946284600F09DFC3146284600F0C9
:101A000099FC2146284600F095FC0023069A8AF8A6
:101A10000030249B1A60269B002B3FF42FAC0498C7
:101A2000C3F800A019B0BDE8F08F1C200A9B074442
:101A300003440A93059B0344059371E70126A5E43B
:101A4000C0F1200008FA00F03CE401465A4628465E
:101A500000F04CFE229B8146012B40F3B2814FF0F7
:101A6000000AD9F8103009EB8303186900F02EFD45
:101A7000C0F1200041E700BF00002440446100089D
:101A8000314600230A22284600F078FC119B0646C6
:101A9000002B40F3E582CDE90683002F00F31F8180
:101AA000BAF1000F40F0D681B046029B079903F0CF
:101AB0000102049B08921F46013B1944229B079197
:101AC00013430A9349462046FFF702FB31468346FB
:101AD000204600F0EFFE424649468246284600F086
:101AE00009FFC26801460BF13003002A43D102907E
:101AF0002046059300F0DEFE024602992846029237
:101B000000F018FC029A059B1AB90A99002900F006
:101B10009982BAF1000FC0F2608122994AEA010A63
:101B2000089951EA0A0100F05881002A00F3B381B4
:101B3000079A07F1010A9742D3463B7000F0B18142
:101B4000214600230A22284600F018FC4645044698
:101B500031464FF000034FF00A02284612D000F041
:101B60000DFC4146064600230A22284600F006FCEA
:101B700057468046A6E72846029300F0DBFB012289
:101B8000029BC6E700F0FAFB57460646804699E7F7
:101B9000229B022B7CDC0B9B002B7FF47EAF069BF1
:101BA0004946013320460693FFF792FADDF810B05C
:101BB00000F1300300270BF8013BF3E649462046CD
:101BC00000F078FE0028BFF6C1AE214600230A22AD
:101BD000284600F0D3FB069B044603F1FF380B9B1D
:101BE000002B7FF44DAF119B002B40F33282079303
:101BF000B7E6B14B04930333FFF7E3BBDDE9021211
:101C000000297FF473AEC2F31303002B7FF46EAE92
:101C1000AA4B1340002B00F0FE810A9B4FF0010AF3
:101C200001330A93059B0133059361E601230B936E
:101C3000239B069A134411930133012B1846B8BF16
:101C40000120079300216F6A172879607FF70AAC9B
:101C5000012204235B0003F1140C8445114602F1B8
:101C60000102F7D97960FFF7FDBB01230B93239B9A
:101C7000002B46DD184611930793E3E700230B93EF
:101C8000D6E700230B93F2E7119BCDF8188007935A
:101C9000079B002B7FF42FAD49460522284600F014
:101CA0006DFB81462046494600F004FE00287FF780
:101CB00022AD31230498069F804600F8013B01378E
:101CC00004904946284600F035FB7B1CDDF810A047
:101CD0000693CDF81080002E7FF48FAE91E631464A
:101CE0003A46284600F072FD0646D9E6A3EB0808FE
:101CF00080E5DDE908234FF0020ACDE90E23FFF766
:101D0000E0BB012323930793FFF7A7BB03D1029BFB
:101D1000D8073FF554AEDA461BF8013D302BFAD018
:101D20005FE6109A002A00F0C28003F23343059A5E
:101D3000DDF830801A4405920A9A17461A440A922E
:101D400063E5069B049A013306933123137048E63A
:101D50004FF000094E46CEE4214628460C9A00F08A
:101D6000C5FC0446B5E500F01581DDE90801069AD9
:101D7000534B564206F00F0203EBC203D3E9002394
:101D800002F0E4FA36118046894600F0748100239F
:101D90004FF0020A4B4FF20706D5D7E9002302F0B5
:101DA000D5FA01230AF1010A761007F10807F2D1EA
:101DB000002B3FF4A5AB80468946FFF7A1BB0D90F1
:101DC00030E5029B002B7FF44AAEDDE90212C2F33C
:101DD0001303002B3FF41CAF41E6002A12DD21461D
:101DE00001222846029300F0F1FC4946044600F027
:101DF00061FD0028029B40F31981392B00F0FD8022
:101E00000BF13103BA46069A37460132464606922E
:101E10000AF8013BE5E5059D029CCDF808800246E5
:101E20000B46FEF7BFF952465B468046894602F0F4
:101E30001DFD60B952465B464046494602F0EEFC45
:101E400000283FF4BCAC029BD9077FF5B8AC049ADC
:101E5000FFF7F0BB2846716800F02CFA074600280F
:101E600000F02C81336906F10C0102339A000C302A
:101E700000F0AAF939460122284600F0A7FC804666
:101E800013E62146284600F031FC044621E50A9B72
:101E9000079A9F1AB9E4392B00F0AF80BA46013394
:101EA000B1E7069A37460132464606927AE5169B16
:101EB000C3F136033BE700BF7C6100080000F07F00
:101EC0009856000888570008DDF848A08549DDE9E4
:101ED0000E2301EBCA0151E9020102F037FACDE904
:101EE0000E014946404602F0E1FC0646FEF7A6FA1E
:101EF0000B46024649464046FEF752F95346049FB8
:101F00003036012B8046894607F8016B00F0B1801E
:101F1000129E049B1E440022734B4046494602F029
:101F200015FA8946804602F0C1FC8246FEF786FA21
:101F300002460B4640464946FEF732F90AF1300A9E
:101F400007F801ABB74280468946E4D1DDE90E01CE
:101F50000022664BFEF726F942464B4602F068FC2B
:101F600000285AD1DDE90E2300206049FEF718F958
:101F700042464B4602F07AFC00283FF495AB16F837
:101F8000013CB246302B06F1FF36F8D0139B0133EB
:101F9000069336E54FF0020ADDE90889FFF7B0BA8B
:101FA000079B002B3FF452AB119B002B7FF77CABC0
:101FB0001293069B0022013B4046494613934A4B2D
:101FC00002F0C4F9804689460AF10100FEF736FAAC
:101FD00042464B4602F0BAF9454B0022FEF7E2F8C2
:101FE000A1F15073CDE90E010F93FFF7ACBA069B38
:101FF000013306933123FFF724BB069BBB46013315
:102000000693392337460BF8013B4646D9E44FF097
:1020100000094E464DE69A466AE4139B049A0693DD
:10202000FFF708BB0E9C149DB246AFE77FF4EAAE03
:10203000DA077FF5E7AEE0E6DDF854B00E9C149DBC
:10204000FFF732BB392BD8D0BAF1000F3FF7D8AE2B
:10205000D8E6229B022B3FF717AECDF818809EE5FD
:10206000229B022B3FF710AE119BCDF818800793EF
:1020700013E53E466AE74FF0020AFFF741BA1D4BEF
:102080000493FFF7FBB80246EA211B4B1B4800F004
:1020900051FF00266B6A314628465E6000F00AF95F
:1020A000049090B900224FF4D571154B134800F0FD
:1020B00041FF3FF435ACC0F13C00B7E4024640F2CA
:1020C000EA210F4B0D4800F035FF6B6A04994FF081
:1020D000FF3219600123239611920B930792FFF7A9
:1020E000E3BA00BF98560008000024400000E03F1B
:1020F00000001C40706100088061000898610008C1
:10210000CC610008F030704700487047540100204F
:102110000048704754010020024B0146186800F047
:102120009BBE00BF00000020024B0146186800F073
:102130002DBE00BF000000205FFA81FC810710D097
:102140000346511E2AB90AE09A0718460AD00139F7
:1021500005D3184613F8012B6245F5D170470020CE
:102160007047114603290CD80029F8D003460144D2
:1021700001E08B42F3D0184613F8012B6245F8D1E9
:10218000ECE7024610B54CEA0C2444EA044410463D
:10219000036804326340A3F1013E2EEA030313F007
:1021A000803F04D1043903291046F0D851B10346C9
:1021B000014401E08B4205D0184613F8012B62451B
:1021C000F8D110BD002010BD844641EA000313F091
:1021D000030349D1403A23D30B6803604B68436043
:1021E0008B688360CB68C3600B6903614B69436193
:1021F0008B698361CB69C3610B6A03624B6A43627B
:102200008B6A8362CB6AC3620B6B03634B6B436362
:102210008B6B8363CB6BC36340304031403ADBD27E
:1022200030320BD30B6803604B6843608B6883606C
:10223000CB68C36010301031103AF3D20C3205D3A2
:1022400051F8043B40F8043B043AF9D2043208D078
:10225000D2071CBF11F8013B00F8013B01D30B88EA
:1022600003806046704700BF082A13D38B07B1D0A4
:1022700010F00303AED0C3F10403D21ADB071CBF76
:1022800011F8013B00F8013BA4D331F8023B20F8E0
:10229000023B9FE7043AD9D3013A11F8013B00F819
:1022A000013BF9D20B7803704B7843708B788370C5
:1022B0006046704770B5466A05460C465EB1F368E5
:1022C000A3B153F82400E8B1026843F824200023A6
:1022D000C0E9033370BD1020FFF71EFF0646686299
:1022E000E8B10023C0E901330360C3602122042167
:1022F000284600F03DFD6B6AF060DB68002BE0D102
:10230000002070BD0121284601FA04F56A1D9200E3
:1023100000F02EFD0028F3D0C0E90145D7E70246C2
:102320006621024B024800F005FE00BF80610008F4
:10233000E061000870B5466A05460C464EB13CB1F6
:102340006B6A6268DB6853F82210216043F8224010
:1023500070BD1020FFF7E0FE686220B1C0E90166A1
:102360000660C660EBE702468A21024B024800F095
:10237000E1FD00BF80610008E06100082DE9F04147
:102380004FF0000E0E461C460D69074601F1140081
:1023900001680EF1010E8BB202FB0343090C4FEAF8
:1023A000134C02FB01CC9BB203EB0C43754540F888
:1023B000043B4FEA1C44EBDC3CB1B368AB4207DDA5
:1023C00006EB850301355C6135613046BDE8F0817F
:1023D000716838460131FFF76DFF804690B1326970
:1023E00006F10C01023292000C30FFF7EDFE31468F
:1023F00046463846FFF79EFF06EB850301355C61D4
:102400003561E2E70246B521014B024800F092FD3A
:10241000CC610008E06100082DE9F8431E46DFF8B2
:10242000A0C0174603F108028CFB023C092E4FEABC
:10243000E27305460C46C3EB6C0339DD4FF0010C2B
:1024400000214FEA4C0C634501F10101F9DC2846FB
:10245000FFF730FF014668B3089B092F43614FF037
:102460000103036112DC09270A34BE420BDDF61BAF
:10247000264414F8013B0A222846303BFFF77EFF32
:10248000A6420146F5D10846BDE8F88304F10909E2
:10249000C8463C4418F8013B0A222846303BFFF767
:1024A0006DFFA0450146F5D1A7F108044C44DCE7D7
:1024B0000021CCE70246CE21024B034800F03AFD52
:1024C000398EE338CC610008E0610008020C120488
:1024D0000346CAB91020834013F07F4F04BF1B028C
:1024E000083013F0704F04BF1B01043013F0404F4D
:1024F00004BF9B000230002B05DB13F0804F00F17E
:10250000010008BF202070470020E5E7036802466D
:1025100013F0070009D0D9071FD498074BBF5B08F9
:102520009B08012002201360704799B209B910205E
:10253000C340D9B209B908301B0A190704BF1B09E7
:102540000430990704BF9B080230D90703D45B0805
:1025500000F1010003D01360704700207047202075
:10256000704700BF10B50C460121FFF7A3FE0246DD
:1025700018B10123C0E9043410BD4FF4A071024B1F
:10258000024800F0D7FC00BFCC610008E061000801
:102590002DE9F04F0E6915698846AE42144685B0A4
:1025A00005DB2A46234635460C4616469846A36860
:1025B0006168AF19BB42B8BF0131FFF77BFE0190E4
:1025C000002800F08780019B03F1140909EB870ABA
:1025D000D14505D24B46002243F8042B9A45FBD83F
:1025E00008F1140808EB860B04F11403D8451A46C9
:1025F00003EB85055FD22B1B153B23F0030304334C
:102600001534A54238BF0423CDE902A7AC461F46C6
:10261000924605E0000C29D1C34509F1040948D9C7
:1026200058F8040B85B2002DF4D056464C460023D2
:1026300056F8040B216882B21FFA81FE05FB02EEF8
:10264000000C0A0C05FB0022734402EB13429BB200
:1026500043EA0243B44544F8043B4FEA1243E7D847
:1026600049F8073058F8040C000CD5D0D9F80030E0
:10267000544619464D4600222688090C00FB0611D7
:102680009BB20A4443EA024345F8043B54F8046B06
:102690002968360C8BB200FB0633A44503EB1243CA
:1026A0004FEA1342E8D8C34549F8073009F1040955
:1026B000B6D8DDE902A7002F02DC05E0013F03D018
:1026C0005AF8043D002BF9D0019B18461F6105B054
:1026D000BDE8F08F024640F25D11024B024800F067
:1026E00029FC00BFCC610008E06100082DE9F04141
:1026F00012F003031446074682B02DD10E46A410F3
:102700001CD07A6A8AB39568002D39D0E3074FF060
:10271000000806D4641011D0286898B10546E30774
:10272000F8D531462A463846FFF732FF0346314690
:1027300038461E46FFF7FEFD6410EDD1304602B06C
:10274000BDE8F0812A4629463846FFF721FF286078
:102750000546C0F80080E2E7184A013B52F8232002
:102760000023FFF70BFE0646C9E71020FFF7D4FC55
:1027700002467862E0B10023C0E901330360C36020
:10278000012138460192FFF795FD019A054640B1B7
:10279000012340F27121C0E90431002390600360FD
:1027A000B4E702464FF4A071054B064800F0C2FBA7
:1027B0004FF4D771044B034800F0BCFB8856000867
:1027C000CC610008E0610008806100082DE9F04755
:1027D0000D462E69AB6806EB6216741C9C4291464E
:1027E000074649684FEA621A04DD5B009C4201F12A
:1027F0000101FADC3846FFF75DFD804600284ED027
:10280000BAF1000F00F114000EDD034600210AF1B9
:1028100005024FEA820C08EB820243F8041B934244
:10282000FBD1ACF114031844296905F1140319F024
:102830001F0903EB81012AD084464FF0000AC9F139
:10284000200E1A6802FA09F242EA0A024CF8042B36
:1028500053F8042B994222FA0EFAF2D84B1B153B7F
:1028600023F00303043305F11502914238BF04231A
:10287000BAF1000F18BF264640F803A03846294693
:10288000C8F81060FFF756FD4046BDE8F0870438F1
:1028900053F8042B994240F8042FF9D8EEE702468A
:1028A00040F2D911014B024800F044FBCC61000812
:1028B000E061000884460B690069C01A15D10CF16B
:1028C000140C14310CEB830210B401EB830301E010
:1028D000944508D252F8044D53F8041D8C42F7D0A9
:1028E00004D24FF0FF3010BC70477047012010BC7D
:1028F000704700BF2DE9F84F0C6913698946E41A47
:10290000002C17467DD101F11406143202EB83022C
:1029100006EB830301E09E4276D253F8045D52F841
:10292000041D8D42F7D067D3D9F80410FFF7C2FC1D
:10293000002873D0D9F81050C46000F11404264662
:102940004FF0000A3B6909F1140807F1140E09F170
:10295000100C08EB85020EEB83095CF804BF5EF8EF
:10296000041B1FFA8BF353441FFA81FA090CA3EBE3
:102970000A03C1EB1B4101EB23419BB243EA014334
:10298000F14546F8043B4FEA214AE6D8A9EB070196
:1029900015391537B94521F0030606F1040638BF8D
:1029A000042621F0030138BF0021B04442452644EB
:1029B0000C4418D93746444654F8041B8BB2534490
:1029C0004FEA234A0AEB11419BB243EA0143A24278
:1029D00047F8043B4FEA214AEED8541EA4EB080402
:1029E00024F00304344423B954F8043D013D002B82
:1029F000FAD00561BDE8F88F4B460124B9461F4661
:102A000092E7F9DB00248FE70021FFF753FC60B168
:102A100001220023C0E90423BDE8F88F02464FF4E9
:102A20001071054B054800F085FA024640F232214C
:102A3000014B024800F07EFACC610008E06100081A
:102A40000F4B0B40A3F15073002B02DD0020194601
:102A500070475B42B3F1A07F4FEA235205DA4FF48F
:102A60000023002043FA02F17047143A1E2AD6BF11
:102A70004FF00043012223FA02F200211046704772
:102A80000000F07F2DE9F041076900F1140606EB24
:102A900087070C4657F8041CA7F104080846FFF7FF
:102AA00015FDC0F120030A28236036DD46451ED2FD
:102AB000B0F10B0357F8082C26D0C3F1200C994035
:102AC00022FA0CF00843A7F1080140F07F558E422E
:102AD00045F440153AD202FA03F057F80C3C23FAB9
:102AE0000CF303431C4620462946BDE8F081B0F1B3
:102AF0000B0308D001FA03F0002340F07F551C4679
:102B000045F44015EFE71A46144641F07F5545F469
:102B1000401520462946BDE8F081C0F10B0321FA9B
:102B200003F2464542F07F552CBF002257F8082C8F
:102B300045F4401538BFDA4000F1150301FA03F3FC
:102B400043EA020420462946BDE8F08102FA03F375
:102B50001C46C8E770B5012182B016461D46FFF736
:102B6000A9FB044600284CD02B46C5F30A55C3F3F5
:102B700013030DB143F48013002E019322D0684655
:102B80000096FFF7C3FC002837D0019B0099C0F1E5
:102B9000200203FA02F20A43C34001936261002B50
:102BA00014BF02210121A3612161B5B1069BA5F2E9
:102BB000334505441D60079BC0F135001860204671
:102BC00002B070BD01A8FFF7A1FC0123019A1946CC
:102BD000626120302361002DE8D104EB8102A0F274
:102BE00032431069069A1360FFF770FCC0EB411185
:102BF0002046079B196002B070BDDDE900236261C9
:102C0000CDE7024640F20A31014B024800F092F94A
:102C1000CC610008E06100082DE9F04383B08846EC
:102C200069468146FFF72EFF04460D46404601A93E
:102C3000FFF728FFD9F81030D8F810200F469A1A5D
:102C4000DDE90063F31A03EB4213002B0CDD05EB07
:102C5000035906464D4632463B462046294601F07A
:102C60009FFC03B0BDE8F083C3EB033301EB0351DA
:102C700006460F46EFE700BF172870B506460ADD87
:102C8000002000240749084D22462B4601F05EFB38
:102C9000013EF9D170BD054B03EBC006D6E9040136
:102CA00070BD00BF0000F03F0000244088560008BF
:102CB00001F1FF3C116902F114034FEA6C1C03EBB4
:102CC00081010CF1010C8B4200EB8C0C16D210B57B
:102CD000A0F1040E53F8044B99424EF8044FF9D872
:102CE0008B1A153B23F0030304331844844504D99D
:102CF000002340F8043B8445FBD810BD844505D92A
:102D0000002340F8043B8445FBD87047704700BF60
:102D100003694A11934200F1140009DA00EB8303BE
:102D200002E053F8042DC2B98342FAD8002070475C
:102D300010DD11F01F010DD010B450F8224000EB4F
:102D4000820324FA01F202FA01F18C420BD0012035
:102D500010BC704700EB8203E6E70120704753F890
:102D6000042D002AF3D18342F9D8002010BC70470B
:102D700038B502FB01F5294600F06EF8044618B19B
:102D80002A460021FDF7C4FB204638BD002952D059
:102D900038B551F8043C0C1F002BB8BFE4180546A9
:102DA00000F030F92B4A1368002B45D0A3420CD910
:102DB00021686018834228D0636028461460BDE80B
:102DC000384000F021B9A3420FD81A465B68002BA7
:102DD000F9D11168501884421DD034D36360546017
:102DE0002846BDE8384000F00FB911685018A042DD
:102DF00015D028D8216860188342EFD118685B6825
:102E00000144C4E900135460EAE718685B680144B0
:102E1000C4E90013D1E7236819441160E0E7206892
:102E20000144501883421160DAD1D3E90003014410
:102E3000C2E90013D4E77047284663601460BDE818
:102E4000384000F0E1B80C2328462B60BDE838403C
:102E500000F0DAB800020020F8B5CD1C25F003051B
:102E600008350C2D38BF0C25002D064623DBA94262
:102E700021D8264F00F0C6F83A6822B3144603E082
:102E800063682246FBB11C4623685B1BF8D40B2BFE
:102E900015D8636894420CBF3B605360304600F025
:102EA000B3F804F10B00231D20F00700C21A01D073
:102EB0001B1AA350F8BD0C2300203360F8BD23601B
:102EC0001C442560EAE77968D1B12946304600F014
:102ED0001FF8431C01460CD0C41C24F00304A0427C
:102EE00005D03046611A00F013F8013001D025609A
:102EF000D4E70C233046336000F086F80020F8BD9C
:102F0000304600F005F87860DFE700BF00020020DF
:102F1000002238B5064D044608462A6001F026FD19
:102F2000431C00D038BD2B68002BFBD0236038BD7C
:102F300008020020144600B51A460A4B0D461B68CD
:102F400085B0DE6803464CB1074901913046074918
:102F50000294009500F022F800F0E4FA04490C46CF
:102F6000F3E700BF0000002014620008246200089C
:102F70002062000808B513460022FFF7DBFF00BF00
:102F80000CB400B583B004AB53F8042B019300F0EC
:102F900077F803B05DF804EB02B070470EB400B5EB
:102FA000074A82B003AB0146106853F8042B019323
:102FB00000F066F802B05DF804EB03B0704700BFA4
:102FC0000000002010B4034CD4F8E440A44610BC28
:102FD000604700BF6400002082B049B15AB16BB1B4
:102FE00013780B601278101E18BF012002B07047D2
:102FF00001A9002AF3D1104602B070476FF001001A
:10300000F4E700BF704700BF704700BF9368013B03
:10301000002B936005DAD2F818C0634507DB0A2954
:1030200005D01368581C106008461970704700F0EE
:103030007DB900BF9BB1F8B5134406460F46541E38
:103040005D1E01E0AC4208D03A46304614F8011F3C
:10305000FFF7DCFF431CF5D1F8BD0020F8BD0020D0
:10306000704700BF936810B5144613B918465360F3
:1030700010BD00F065FC0023C4E9013310BD00BFA2
:103080002DE9F04F0E4692461C4607469FB018B1F8
:103090008369002B00F0A880954B9E4200F0AA8027
:1030A000944B9E4200F0B580934B9E4208BFFE6851
:1030B000B389180740F1A3803369002B00F09F808B
:1030C000002320220B9330239AF800100594012549
:1030D0008A4C8DF831208DF8323000297DD0D146D0
:1030E0000B4604E019F8013F002B00F09480252BDB
:1030F000F8D1B9EB0A0B40F0918099F80030002B21
:103100006BD000234FF0FF3209F10109CDE907230D
:10311000069309938DF85B301C9304E0001B05FABD
:1031200000F018430690CA460522204619F8011BF4
:10313000FFF702F8069B0028F0D1D90644BF2022F1
:103140008DF85B201A0748BF2B229AF8001048BF61
:103150008DF85B202A2972D1059A11680432002962
:103160000592C0F2A08009919AF801100AF1010AB3
:103170002E2976D0DFF8889103224846FEF7DCFF3F
:1031800048B14022069BA0EB090002FA00F003437D
:103190000AF1010A06931AF8011B062259488DF814
:1031A0003010FEF7C9FF002800F08380564B002B3B
:1031B0006CD005A9009132463846544B06A9FDF75C
:1031C000C1FA0390039B013307D00B9B039A9AF833
:1031D000001013440B93002981D1B3895B0615D4E9
:1031E0000B981FB0BDE8F08F00F08AFB404B9E4269
:1031F0007FF456AF7E68B38918073FF55DAF31465F
:10320000384600F00DF900283FF45AAF4FF0FF3078
:10321000E7E7BE684CE7B9EB0A0BDED0D046CAF14F
:10322000010A03E0934538D918F8011F32463846A1
:10323000FFF7ECFE01300AEB0802F3D1CDE7A1F174
:103240003002092A94D8099B1AF8011F03EB830363
:1032500002EB4303A1F13002092AF5D92E29099383
:1032600088D19AF801102A292DD1059B0AF1020074
:103270001A680433002A0593B8BF4FF0FF339AF859
:10328000021007928246B8BF079373E7059B073386
:1032900023F007030833059397E70B9A99F800305A
:1032A0005A440B922BE7494243F0020309910693DB
:1032B0005AE705A9009132463846144B06A9FDF796
:1032C00081FD03907EE70023A1F13002092A0AF173
:1032D000010A07933FF64EAF1AF8011F03EB830371
:1032E00002EB4303A1F13002092AF5D9079341E724
:1032F000F4580008D4580008B45800086462000864
:103300006C6200087062000845070008353000084C
:103310008C4600B586461346034A714610685DF830
:1033200004EB6246FFF7ACBE00000020F8B506468D
:103330000D46144608B1836943B3254B9C422AD0FD
:10334000244B9C4229D0244B9C4208BFF468A269BC
:10335000A389A2601A0722D5236903B32268616991
:10336000D31AEDB299422F4629DD0133A168013904
:10337000A160511C2160157062699A4216D0A38920
:10338000DB0701D50A2D11D03846F8BD00F0B8FA98
:103390000F4B9C42D4D17468D9E7B468D7E7214673
:1033A000304600F03DF838B92369D7E7214630466A
:1033B00000F044F90028E7D04FF0FF37E4E721465A
:1033C000304600F03BF90028F6D101232268CDE712
:1033D000F4580008D4580008B458000803460A46B8
:1033E000024908681946FFF7A1BF00BF000000208E
:1033F00010B4034CD4F8E040A44610BC604700BFB2
:1034000064000020034649B1FF2A02D801200A7057
:1034100070478A224FF0FF301A60704708467047A5
:103420003C4B70B51D6806460C460DB1AB69E3B167
:10343000394B9C421FD0394B9C424DD0384B9C425B
:1034400008BFEC68B4F90C3018079AB219D5216995
:1034500011B312F001002FD000256069A560404231
:10346000A06100292ED0002070BD284600F048FA47
:10347000294B9C42DFD16C68B4F90C3018079AB222
:10348000E5D4D1063ED5520728D4216943F008037C
:10349000A3819AB20029DCD102F42070B0F5007F3C
:1034A000D7D02146304600F007FCB4F90C30216932
:1034B0009AB212F00100CFD1950758BF6069A060A1
:1034C0000029D0D1120658BF0846CDD543F040039D
:1034D0004FF0FF30A38170BDAC68B3E7616B51B1B1
:1034E00004F14402914204D03046FFF74FFCB4F996
:1034F0000C30002262630022216923F02403C4E916
:103500000012C3E7092243F0400332604FF0FF305E
:10351000A38170BD00000020F4580008D4580008B2
:10352000B4580008062008B500F08EFD012001F017
:1035300033FA00BFF8B58B890C46190707463BD410
:103540006268002A55DDE66A002E50D000223D68F0
:103550003A6013F4805250D101233846216AB047B3
:10356000421C5CD0A389E66A5B0705D56368C01A74
:10357000636B0BB1236CC01A0246216A00233846E4
:10358000B047411C3BD13B68002B38D01D2B01D0EC
:10359000162B4BD100232269C4E90023616B3D60E7
:1035A00029B304F14403994202D03846FFF7EEFBF9
:1035B000002318466363F8BD2669C6B19A0718BF91
:1035C0000023256808BF63692660AD1BA3600CE07B
:1035D0002B463246D4F828C03846216AE047B0F17D
:1035E000000CA5EB0C05664412DD002DF0DC00207C
:1035F000F8BD226C002AA6DCF9E7606DB4E7002272
:10360000236962602360A389DB04C7D56065C5E7D1
:10361000A3894FF0FF3043F04003A381F8BD3B681E
:10362000002B9FD01D2B06D0162B04D0A38943F06E
:103630004003A381F8BD00203D60F8BD38B50B699B
:10364000BBB10C46054608B18369B3B10D4B9C4232
:1036500011D00D4B9C4213D00C4B9C4208BFEC6820
:10366000B4F90C302BB121462846BDE83840FFF7AD
:1036700061BF002038BD6C68F2E700F041F9E5E772
:10368000AC68EDE7F4580008D4580008B4580008B6
:1036900038B540B303690446E3B1174B1D680DB15B
:1036A000AB69CBB1154B9C420FD0154B9C4221D03E
:1036B000144B9C4208BFEC68B4F90C3053B121465E
:1036C0002846BDE83840FFF735BF6C68B4F90C30C8
:1036D000002BF4D1002038BD284600F011F9074B2B
:1036E0009C42E2D1F1E7084B08491868BDE8384030
:1036F00000F0BEBAAC68DFE700000020F458000814
:10370000D4580008B4580008805600083D36000818
:1037100000207047014900F0ABBA00BF3D360008F9
:1037200000207047682270B54D1E02FB05F50E465D
:1037300005F17401FFF790FB044640B100210C3005
:10374000C4E9016005F168022160FCF7E1FE204652
:1037500070BD00BF274B2DE9F0411E680746B369D5
:1037600053B34FF004084836D6E90134013B04D581
:103770001EE05A1C04F168041AD0B4F90C50013B45
:10378000002DF6D11C4B08222946C4E90055C4E996
:103790000253C4E904556566A56104F15C00FCF7B9
:1037A000B7FEC4E90D55C4E912552046BDE8F081C5
:1037B00035682DB12E46D7E7304600F01FF8D0E728
:1037C0004FF4D6713846FFF747FB044668B10560F1
:1037D00029460546C0F804800C304FF4D072A06032
:1037E000FCF796FE34602E46BEE70C2330603B604B
:1037F000DBE700BF805600080100FFFF0023334ACB
:103800002DE9F0471268C0E912339042036508BF02
:1038100001232F4908BF836181620546FFF79AFFA4
:10382000034628466B60FFF795FFA86028460024F2
:10383000FFF790FF04236E68DFF898A0DFF89890F8
:10384000DFF89880264FE8600822F3602146C6E939
:103850000044C6E904447466B460B46106F15C00D7
:10386000FCF756FE1F4BC6E9086AC6E90A9837639B
:10387000AE680822F3602146C6E90044C6E9044464
:103880007466B460B46106F15C00FCF741FE164B4F
:10389000C6E9086AC6E90A983763EE682146F3600C
:1038A0000822C6E90044C6E904447466B460B46101
:1038B00006F15C00FCF72CFE0123C6E9086AC6E9A4
:1038C0000B87C6F82890AB61BDE8F08780560008EA
:1038D00015370008B5410008DD4100081D42000809
:1038E0003D4200080900010012000200024B03499A
:1038F000186800F0BDB900BF805600083D360008CA
:10390000836903B97AE77047704700BF704700BF0B
:10391000704700BF704700BF024B0349186800F0B2
:1039200087B900BF0000002011370008024B03498F
:10393000186800F07DB900BF0000002021370008A2
:103940009368002B00F0B7802DE9F04FB1F90C30EF
:103950000C4619078046174683B098B225D52369CF
:103960001BB310F002033D682DD04FF0000B5E46F4
:10397000DFF8B8A2002E00F08B80564533465A4639
:1039800028BF53464046216AD4F828C0E0470028A3
:1039900040F38780BB6883441B1A361ABB60002B38
:1039A000E8D1002003B0BDE8F08F21464046FFF784
:1039B00037FD002840F03681B4F90C303D6898B2EC
:1039C00010F00203D1D110F0010976D14E46002E3D
:1039D0005AD08205D4F808B040F1B580B3455A46B4
:1039E00000F2CD8010F4906F00F0CB802368216945
:1039F000A3EB010B636903EB430A0AEBDA7A0BF1E1
:103A000001034FEA6A0A33445345524684BF9A463B
:103A10005246430540F1EA8011464046FFF71CFA42
:103A2000002800F0F9805A4621690190FEF7CCFB8E
:103A3000A289019B22F4906242F08002A28103EBF2
:103A40000B0023613246AAEB0B03B346C4F814A063
:103A5000A3602060B24600264946019200F0BAF900
:103A6000A3682168019AA3EB0B030A44A3602260B8
:103A7000B868D144A0EB0A00B860002891D0B4F92E
:103A80000C0080B2002EA4D1D5E9009608359EE73F
:103A9000D5E900B608356DE721464046FFF7CEFD73
:103AA00080B3B4F90C304FF0FF3043F04003A381F2
:103AB00003B0BDE8F08F002070471E46AA46994625
:103AC00018461D4656B3002832D04A462068216960
:103AD000B24228BF32468842636904D9A16803EB29
:103AE000010B5A4574DC934265DC2A464046216A44
:103AF000D4F828C0E047B0F1000BD2DDB9EB0B09D8
:103B0000CAD00120BB685D44A3EB0B03A6EB0B06F8
:103B1000BB60002B3FF445AF002ED4D10AF108035F
:103B200053F8046C9A4653F8085C0833002EF7D01B
:103B300032460A212846FEF7FFFA002869D00130F4
:103B4000A0EB0509C1E72068236998421BD8636987
:103B5000B34218D86FF0004CB44528BFB4469CFB64
:103B6000F3FC4A4603FB0CF34046216AD4F828C014
:103B7000E047B0F1000A94DDA6EB0A0678E7B34609
:103B80003246206866E7B345DA4628BFB246494662
:103B9000524600F01FF9A3682268A3EB0A035244BF
:103BA000A3602260002BE7D121464046FFF746FD87
:103BB0000028E1D075E729469346019200F00AF902
:103BC000A368019A9B1AA36023681A44226095E7B0
:103BD00029465A4600F0FEF8236821465B444046D9
:103BE0002360FFF72BFD002888D05AE7404600F0FD
:103BF0006DF9034600287FF422AF40462169FFF7A4
:103C0000C5F80C22B4F90C30C8F8002023F080036A
:103C100049E7721C914659E70C22B4F90C30C8F8F8
:103C2000002040E74FF0FF30BCE600BF00FCFF7F04
:103C30002DE9F0410026884600F14807D7E90154F4
:103C4000013D0ED4A389013D012B06D9B4F90E30F4
:103C5000013302D02046C04706436B1C04F16804C0
:103C6000F0D13F68002FE9D13046BDE8F08100BFB8
:103C70002DE9F8434FF000090746884600F1480651
:103C8000D6E90154013D10D4A389013D012B08D987
:103C9000B4F90E30013304D021463846C04749EA12
:103CA00000096B1C04F16804EED13668002EE7D1E0
:103CB0004846BDE8F88300BFF0B58B890C469907EC
:103CC00097B007D5012204F14703C4E90432236009
:103CD00017B0F0BDB4F90E10054600292DDB6A4679
:103CE00000F0D8FA002827DB019E4FF4806706F425
:103CF0007046A6F50056B6FA86F639462846760985
:103D0000FFF7AAF830B3A3891A4A43F08003AA62E6
:103D1000C4E90407A3812060002ED9D02846B4F955
:103D20000E1000F0CBFA0028D2D0A38923F00303B1
:103D300043F00103A381CBE7A38913F0800F14BFE5
:103D400040274FF48067284639460026FFF784F85D
:103D50000028D8D1B4F90C309A05B9D4012123F048
:103D6000030304F1470243F00203C4E90421A381E1
:103D70002260ADE71537000870B50C46B1F90E109A
:103D8000164600291D4696B013DB6A4600F082FAFB
:103D900000280EDB01994FF4806301F47041A1F516
:103DA0000051B1FA81F1002049092960336016B051
:103DB00070BD0022B4F90C302A601B0604D54023E4
:103DC0000020336016B070BD4FF480630020336074
:103DD00016B070BD88420DD98B1883420AD900EB0A
:103DE000020CBAB1624613F801CD994202F801CD36
:103DF000F9D170470F2A0ED8034602F1FF3C4AB1B1
:103E00000CF1010C013B8C4411F8012B614503F8C6
:103E1000012FF9D1704740EA01039B074FD1A2F16E
:103E2000100370B501F1200C23F00F0501F1100E05
:103E300000F11004AC441B095EF8105C0EF1100E8A
:103E400044F8105C5EF81C5C103444F81C5C5EF8AE
:103E5000185C44F8185C5EF8145CE64544F8145CA1
:103E6000EAD1013312F00C0F01EB031102F00F0441
:103E700000EB031327D08E46043C24F003064FEAE0
:103E8000940C1E441C1F5EF8045B44F8045FB442AB
:103E9000F9D10CF1010402F0030203EB840301EBFE
:103EA000840102F1FF3C4AB10CF1010C013B8C444E
:103EB00011F8012B614503F8012FF9D170BD0346BC
:103EC00002F1FF3C9CE72246EBE700BFF8B5144641
:103ED000F9B1CAB106460D4600F018FAA04202D365
:103EE0002F463846F8BD21463046FEF7B5FF074657
:103EF0000028F6D022462946FEF766F930462946C4
:103F0000FEF744FF3846F8BD2746FEF73FFF384628
:103F1000F8BD1146BDE8F840FEF79EBF38B5446CC9
:103F20000CB1002038BD80210546FEF795FF024602
:103F3000686430B1031F7C3243F8044F9342FBD1D5
:103F4000EFE74FF0FF3038BD1F29F8B5054608D818
:103F5000466C0C4617464EB156F8240046F82470BD
:103F6000F8BD16234FF0FF302B60F8BD8021FEF71F
:103F700073FF0646686440B10021031F00F17C0511
:103F800043F8041F9D42FBD1E6E74FF0FF30F8BD38
:103F90001F2938B5054620D8426C0C466AB152F844
:103FA000213053B1012B16D0591C10D000252046CA
:103FB00042F824509847284638BD284600F0F8F8C3
:103FC000224601462846BDE8384000F0DDB81623F9
:103FD00001202B6038BD002038BD16234FF0FF3084
:103FE0002B6038BD1F292BD8426C38B50C460546CE
:103FF00082B152F8243002EB84024BB1591C1AD022
:10400000012B16D00025204615609847284638BD5C
:10401000012038BD8021FEF71FFF0246686460B1B1
:104020000020131F02F17C0143F8040F9942FBD1D9
:10403000DFE7032038BD022038BD4FF0FF3038BD28
:104040004FF0FF30704700BF38B5144B1F281D6874
:104050001FD86A6C044662B152F820304BB1012B74
:1040600015D0591C0FD0002542F8205098472846FB
:1040700038BD284600F09CF8224601462846BDE897
:10408000384000F081B8162301202B6038BD002095
:1040900038BD16234FF0FF302B6038BD00000020E4
:1040A000124B1F2870B51E6808D80D46716C044667
:1040B00049B151F8240041F8245070BD16234FF047
:1040C000FF30336070BD80213046FEF7C5FE0146EB
:1040D000706440B10022031F00F17C0C43F8042FF0
:1040E0006345FBD1E5E74FF0FF3070BD00000020D5
:1040F00038B50B4B1D686C6C0CB1002038BD8021AD
:104100002846FEF7A9FE686438B1031F00F17C025F
:1041100043F8044F9342FBD1EFE74FF0FF3038BD37
:104120000000002038B5174B1F281D6827D86A6C7F
:10413000044682B152F8243002EB84024BB1591C80
:104140001BD0012B17D00025204615609847284624
:1041500038BD012038BD80212846FEF77DFE02468D
:10416000686460B10020131F02F17C0143F8040F62
:104170008B42FBD1DEE7032038BD022038BD4FF073
:10418000FF3038BD0000002070B50026074D044602
:10419000084611462E6000F0D1FB431C00D070BDD4
:1041A0002B68002BFBD0236070BD00BF08020020ED
:1041B00000F0B4BB10B50C46B1F90E1000F0B0F829
:1041C000002803DB636D0344636510BDA38923F4FA
:1041D0008053A38110BD00BF002070472DE9F0413E
:1041E0000C46B1F90C101F46CB05054616460BD4FC
:1041F00021F48051A1813B4632462846B4F90E1085
:10420000BDE8F04100F01EB8B4F90E100223002200
:1042100000F066F8B4F90C10EAE700BF10B50C46E0
:10422000B1F90E1000F05CF8A389421C0EBF23F414
:10423000805343F480536065A38110BDB1F90E1023
:1042400000F016B838B50C46114600228446074DDA
:1042500020462A601A46644600F096FB431C00D0B4
:1042600038BD2B68002BFBD0236038BD080200202E
:10427000002238B5064D044608462A6000F03EFB91
:10428000431C00D038BD2B68002BFBD0236038BD09
:104290000802002070B50026074D04460846114666
:1042A0002E6000F033FB431C00D070BD2B68002B48
:1042B000FBD0236070BD00BF08020020002238B58B
:1042C000064D044608462A6000F030FB431C00D02F
:1042D00038BD2B68002BFBD0236038BD08020020BE
:1042E00038B50C46114600228446074D20462A6008
:1042F0001A46644600F02AFB431C00D038BD2B68E8
:10430000002BFBD0236038BD0802002051F8040CBC
:104310000028A0F10400BCBF0B58C018704700BFB4
:1043200038B50C46114600228446074D20462A60C7
:104330001A46644600F012FB431C00D038BD2B68BF
:10434000002BFBD0236038BD0802002070B54FF071
:10435000FF0C4CF4E06C1CEA11541DBF1CEA135511
:1043600094EA0C0F95EA0C0F00F0DEF82C4481EA79
:10437000030621EA4C5123EA4C5350EA013518BF99
:1043800052EA033541F4801143F4801338D0A0FB86
:1043900002CE4FF00005E1FB02E506F00042E0FB33
:1043A00003E54FF00006E1FB03569CF0000F18BF39
:1043B0004EF0010EA4F1FF04B6F5007F64F54074E1
:1043C00004D25FEA4E0E6D4146EB060642EAC62174
:1043D00041EA55514FEAC52040EA5E504FEACE2EE1
:1043E000B4F1FD0C88BFBCF5E06F1ED8BEF1004FE4
:1043F00008BF5FEA500E50F1000041EB045170BD60
:1044000006F0004646EA010140EA020081EA0301A3
:10441000B4EB5C04C2BFD4EB0C0541EA045170BD9F
:1044200041F480114FF0000E013C00F3AB8014F119
:10443000360FDEBF002001F0004170BDC4F1000462
:10444000203C35DA0C341BDC04F11404C4F12005E3
:1044500000FA05F320FA04F001FA05F240EA02003E
:1044600001F0004221F0004110EBD37021FA04F674
:1044700042EB06015EEA430E08BF20EAD37070BD2E
:10448000C4F10C04C4F1200500FA04F320FA05F08D
:1044900001FA04F240EA020001F0004110EBD3708F
:1044A00041F100015EEA430E08BF20EAD37070BDFF
:1044B000C4F1200500FA05F24EEA020E20FA04F3D8
:1044C00001FA05F243EA020321FA04F001F0004187
:1044D00021FA04F220EA020000EBD3705EEA430EF8
:1044E00008BF20EAD37070BD94F0000F0FD101F027
:1044F0000046400041EB010111F4801F08BF013C60
:10450000F7D041EA060195F0000F18BF704703F09D
:104510000046520043EB030313F4801F08BF013D24
:10452000F7D043EA0603704794EA0C0F0CEA1355E0
:1045300018BF95EA0C0F0CD050EA410618BF52EA9A
:104540004306D1D181EA030101F000414FF00000A0
:1045500070BD50EA410606BF1046194652EA4306AE
:1045600019D094EA0C0F02D150EA013613D195EA22
:104570000C0F05D152EA03361CBF104619460AD16A
:1045800081EA030101F0004141F0FE4141F4700174
:104590004FF0000070BD41F0FE4141F4780170BD64
:1045A00070B54FF0FF0C4CF4E06C1CEA11541DBFC9
:1045B0001CEA135594EA0C0F95EA0C0F00F0A7F8CB
:1045C000A4EB050481EA030E52EA03354FEA0131F8
:1045D00000F088804FEA03334FF0805545EA13130B
:1045E00043EA12634FEA022245EA111545EA1065D3
:1045F0004FEA00260EF000419D4208BF964244F16A
:10460000FD0404F5407402D25B084FEA3202B61A88
:1046100065EB03055B084FEA32024FF480104FF45C
:10462000002CB6EB020E75EB030E22BFB61A7546D0
:1046300040EA0C005B084FEA3202B6EB020E75EB63
:10464000030E22BFB61A754640EA5C005B084FEACB
:104650003202B6EB020E75EB030E22BFB61A754698
:1046600040EA9C005B084FEA3202B6EB020E75EBA3
:10467000030E22BFB61A754640EADC0055EA060E64
:1046800018D04FEA051545EA16754FEA06164FEAA7
:10469000C30343EA52734FEAC2025FEA1C1CC0D153
:1046A00011F4801F0BD141EA00014FF000004FF0E0
:1046B000004CB6E711F4801F04BF01430020B4F1A1
:1046C000FD0C88BFBCF5E06F3FF6AFAEB5EB030C59
:1046D00004BFB6EB020C5FEA500C50F1000041EB56
:1046E000045170BD0EF0004E4EEA113114EB5C0423
:1046F000C2BFD4EB0C0541EA045170BD41F48011F6
:104700004FF0000E013C90E645EA060E8DE60CEAFD
:10471000135594EA0C0F08BF95EA0C0F3FF43BAF1A
:1047200094EA0C0F0AD150EA01347FF434AF95EAD1
:104730000C0F7FF425AF104619462CE795EA0C0FB5
:1047400006D152EA03353FF4FDAE1046194622E782
:1047500050EA410618BF52EA43067FF4C5AE50EA5C
:1047600041047FF40DAF52EA43057FF4EBAE12E74C
:104770004FF0FF3C06E000BF4FF0010C02E000BF2D
:104780004FF0010C4DF804CD4FEA410C7FEA6C5C10
:104790004FEA430C18BF7FEA6C5C1BD001B050EAB3
:1047A000410C0CBF52EA430C91EA030F02BF90EA9E
:1047B000020F0020704710F1000F91EA030F58BF5D
:1047C000994208BF90422CBFD8176FEAE37040F0BF
:1047D000010070474FEA410C7FEA6C5C02D150EA5D
:1047E000013C07D14FEA430C7FEA6C5CD6D152EA18
:1047F000033CD3D05DF8040B704700BF84461046DD
:1048000062468C461946634600E000BF01B5FFF7DB
:10481000B7FF002848BF10F1000F01BD4DF808EDAB
:10482000FFF7F4FF0CBF012000205DF808FB00BF7C
:104830004DF808EDFFF7EAFF34BF012000205DF8D6
:1048400008FB00BF4DF808EDFFF7E0FF94BF012023
:1048500000205DF808FB00BF4DF808EDFFF7CEFF24
:1048600094BF012000205DF808FB00BF4DF808ED63
:10487000FFF7C4FF34BF012000205DF808FB00BF34
:104880004FEA410C7FEA6C5C02D150EA013C0AD14C
:104890004FEA430C7FEA6C5C02D152EA033C02D13E
:1048A0004FF0000070474FF0010070474FEA41029F
:1048B00012F5001215D211D56FF47873B3EB625272
:1048C00012D94FEAC12343F0004343EA505311F099
:1048D000004F23FA02F018BF404270474FF000002B
:1048E000704750EA013005D111F0004008BF6FF069
:1048F000004070474FF00000704700BF5822024B45
:104900004FF0FF301A607047080200205822024B17
:104910004FF0FF301A607047080200205822024B07
:104920004FF0FF301A607047080200205822024BF7
:1049300000201A60704700BF080200205822024B76
:104940004FF0FF301A607047080200205822024BD7
:104950004FF0FF301A607047080200205822024BC7
:104960004FF0FF301A60704708020020044A0549E2
:104970001368002B08BF0B46184410601846704798
:104980000C020020180200205822024B4FF0FF308A
:104990001A60704708020020FEE700BF70B586B0BD
:1049A00001214FF4007000F049FD0121042000F0C6
:1049B00045FD4FF4004000F0BDFC00248DF8174089
:1049C0000126ADF8146003238DF8163005A91748A9
:1049D00000F066FB164D052332462146284600F0BE
:1049E000F3FA4FF460230293009403948DF805408A
:1049F0008DF804408DF810606946284600F08EFA64
:104A00003146284600F0B0FA284600F0B8FA0848C7
:104A100000F0BAFA0128FAD0054800F0BDFA0448BF
:104A200000F0BFFA0128FAD006B070BD00080140BE
:104A30000024014008B50121064800F0BAFA02211D
:104A4000044800F010FB0028F9D0024800F008FBF1
:104A500008BD00BF0024014008B5012000F00AFB9A
:104A6000012800D008BD0121094800F072FB18B1EF
:104A7000012000F00FFBF5E70221054800F069FB7B
:104A80000028F5D1034A1388013B1380F0E700BFEB
:104A9000000C01401002002008B5022000F0EAFAE4
:104AA000012800D008BD0221094800F052FB18B1CE
:104AB000022000F0EFFAF5E70121054800F049FB7C
:104AC0000028F5D1034A138801331380F0E700BFB3
:104AD000000C01401002002010B586B001214FF4F7
:104AE000001000F09DFC0121082000F08BFCC02389
:104AF000ADF8043003238DF806301C238DF8073001
:104B000001A9124800F0CCFA114C204600F028FB15
:104B10000023ADF80C304BF6FF73ADF80E303023A8
:104B2000ADF810304FF48063ADF812304FF480438D
:104B3000ADF81430074B02930121204600F09AFB98
:104B400002A9204600F028FB06B010BD000C014071
:104B500000540040801A060038B505460C464FF454
:104B60000031194800F0C9FB0028F8D1012116488E
:104B700000F08EFB1549144800F0B1FB0028F9D075
:104B800000227821104800F0A1FB11490E4800F0E6
:104B9000A6FB0028F9D029460B4800F095FB0D49EB
:104BA000094800F09CFB0028F9D02146064800F097
:104BB0008BFB0849044800F092FB0028F9D0012142
:104BC000014800F073FB38BD0054004001000300B1
:104BD000820007008400070008B501460020FFF7A7
:104BE000BBFF08BD08B501464020FFF7B5FF08BD73
:104BF00010B50446A1F15000C0B2FFF7EDFF200947
:104C000040F01000FFF7E8FF04F00E0040F0010054
:104C1000FFF7E2FF10BD70B50546002609E0284603
:104C2000FFF7E0FF0134E4B214F0800FF7D0013653
:104C3000F6B2072E0CD8A6F15000C0B2FFF7CCFF99
:104C40000020FFF7C9FF1020FFF7C6FF0024EBE7A5
:104C500070BD08B5FFF740FF642000F0DAFCAE201D
:104C6000FFF7BAFF2020FFF7B7FF1020FFF7B4FFD0
:104C7000B020FFF7B1FFC820FFF7AEFF0020FFF71D
:104C8000ABFF1020FFF7A8FF4020FFF7A5FF812012
:104C9000FFF7A2FFFF20FFF79FFFA120FFF79CFF78
:104CA000A620FFF799FFA820FFF796FF3F20FFF708
:104CB00093FFA420FFF790FFD320FFF78DFF002084
:104CC000FFF78AFFD520FFF787FFF020FFF784FF6B
:104CD000D920FFF781FF2220FFF77EFFDA20FFF7C0
:104CE0007BFF1220FFF778FFDB20FFF775FF202006
:104CF000FFF772FF8D20FFF76FFF1420FFF76CFFA7
:104D0000AF20FFF769FFFF20FFF785FF0020FFF7C7
:104D100082FF08BD0246012002E002FB00F01946B6
:104D20004B1E0029F9D17047F8B507460E46203AC8
:104D3000D5B2012B02D0022B18D0F8BD7A2802D9A7
:104D40000136F6B2002731463846FFF751FF0024FE
:104D500009E005EB45031C4A02EB4303185DFFF72E
:104D600041FF0134E4B2052CF3D9E6E7782804D9F1
:104D700011F0010707D14E00F6B231463846FFF771
:104D800037FF00240BE00236F6B20027F5E704EB0C
:104D900005130E4AD05CFFF725FF0134E4B2072C5F
:104DA000F5D9711CC9B23846FFF722FF002408E08C
:104DB00004EB05130833054AD05CFFF713FF0134F9
:104DC000E4B2072CF4D9B8E7145900083C5B00089A
:104DD0002DE9F04780460F4691461D469DF820A0DC
:104DE000BAF1010F04D0BAF1020F2DD0BDE8F0875F
:104DF000A3EB83035B008033984203DD0137FFB2EE
:104E00004FF0000800241CE004EB440608EB4606C3
:104E1000F6B2291B01390A20FFF77CFFB9FBF0F03D
:104E2000224AA2FB0032D20802EB8202A0EB42022D
:104E300030325346D2B239463046FFF775FF01345F
:104E4000E4B2AC42E0D3D1E7C3F11003B0EBC30F3F
:104E500004DD11F0010803D14F00FFB2002421E06E
:104E60000237FFB24FF00008F8E708EBC406F6B2CD
:104E7000291B01390A20FFF74DFFB9FBF0F00B4A5F
:104E8000A2FB003C4FEADC0C0CEB8C0CA0EB4C0CB6
:104E90000CF130025346D2B239463046FFF744FF98
:104EA0000134E4B2AC42E0D3A0E700BFCDCCCCCC1F
:104EB00008B5FFF7CEFE08BD08B501384FEA400C33
:104EC000481EC00002230CF0FE0100F0F800FFF7BE
:104ED0002BFF08BDF8B507460E461546002406E030
:104EE000A119C9B23846FFF7E7FF0134E4B22A5DE1
:104EF000002AF5D1F8BD00B583B001384FEA400C67
:104F0000481EC000022100910CF0FE0100F0F800E4
:104F1000FFF75EFF03B05DF804FB000010B44268C9
:104F200022F4702222F480720B6891F804C043EAE4
:104F30000C231343436083680A4A1A40CB688C6889
:104F4000234391F805C043EA4C0313438360C36ACB
:104F500023F470030A7C013AD2B243EA0253C362DB
:104F600010BC7047FDF7F1FF21B1836843F00103E6
:104F700083607047836823F0010383607047836810
:104F800043F0080383607047836813F0080F01D073
:104F90000120704700207047836843F0040383605A
:104FA0007047836813F0040F01D001207047002080
:104FB000704721B1836843F4A0038360704783681E
:104FC00023F4A0038360704710B509291DD9C46874
:104FD000A1F10A0C0CEB4C0C4FF0070E0EFA0CFE74
:104FE00024EA0E0403FA0CF32343C360062A1BD8F9
:104FF000436B013A02EB82021F24944023EA04032C
:1050000001FA02F21A43426310BD046901EB410E3A
:105010004FF0070C0CFA0EFC24EA0C0C03FA0EF30A
:105020004CEA03030361E1E70C2A0CD8036B073A4F
:1050300002EB82021F24944023EA040301FA02F2E5
:105040001A430263E0E7C36A0D3A02EB82021F24AF
:10505000944023EA040301FA02F21A43C262D3E73E
:10506000C06C80B270470368194201D001207047BC
:1050700000207047064A136803405269024202D07A
:105080001BB900207047002070470120704700BF07
:1050900000040140014B5861704700BF000401400B
:1050A00030B5CB7803F00F02964613F0100F03D003
:1050B00091F802E04EEA020E0B7803B30468002375
:1050C00001E042610133072B18D801229A40B1F860
:1050D00000C032EA0C05F5D14FEA830C0F2505FA22
:1050E0000CF524EA05040EFA0CFC4CEA0404CD7815
:1050F000282DE6D0482DE5D10261E3E704600B8856
:10510000FF2B25D94468002303E0CD78482D1CD01F
:105110000133072B1BD803F1080C012202FA0CF211
:10512000B1F800C032EA0C05F2D14FEA830C0F252A
:1051300005FA0CF524EA05040EFA0CFC4CEA04040A
:10514000CD78282DE1D14261DFE70261E0E74460DC
:1051500030BD8368194201D001207047002070479C
:1051600008B50C4B98420AD001214FF4800000F0A2
:1051700073F900214FF4800000F06EF908BD0121A1
:105180004FF4001000F068F900214FF4001000F017
:1051900063F9F3E70054004070B586B004460D464D
:1051A0008688B6B226F03F06B6B201A800F0CCF869
:1051B00003982D4BA3FB0023990C46EA9346A68047
:1051C000228892B222F0010292B222802B68274AF2
:1051D000934222D88C465B00B0FBF3F39BB2032BC7
:1051E00000D804230CF1010CA4F820C0A383238869
:1051F0009BB243F00103238023889BB223F4816395
:1052000023F00203AA8869890A4313432380AB89E8
:105210002A891343238106B070BDEE884BF6FF72D6
:1052200096421BD003EB830303EB8303B0FBF3F342
:105230009BB243F48043C3F30B020AB943F001036A
:1052400043F400434FF4967201FB02F2084981FBDC
:1052500002129211013292B22284C7E703EB430398
:10526000B0FBF3F39BB2E6E783DE1B43A0860100AD
:10527000D34D621029B103889BB243F00103038030
:10528000704703889BB223F001039BB203807047F1
:1052900029B103889BB243F480730380704703886D
:1052A0009BB223F480739BB20380704729B10388BB
:1052B0009BB243F400730380704703889BB223F4CE
:1052C00000739BB2038070470182704722B141F0A6
:1052D000010189B20182704701F0FE01F9E7838A7A
:1052E0009BB2028B43EA024323F07F4331EA03037C
:1052F00001D0002070470120704782B00023019345
:10530000009300900B0F019321F07F41019B4BB163
:10531000009B14330093009B1B680B4207D00120B5
:1053200002B07047090C009B18330093F3E700208C
:10533000F6E70000034A536823F4404303435360F5
:10534000704700BF0010024010B4294B5B6803F0A7
:105350000C03042B2BD0082B2CD013B1254B03604E
:1053600001E0244B036022494B68C3F30313224C32
:10537000E35CDAB20368D34043604A68C2F30222B6
:10538000A25CD2B223FA02F282604A68C2F3C2225D
:10539000A25CD2B2D340C3604A68C2F381321749DB
:1053A0008A5CD2B2B3FBF2F3036110BC7047114BBD
:1053B0000360D8E70E4A53685268C3F3834302334D
:1053C00012F4803F04D10E4A02FB03F30360CAE7E4
:1053D000074A526812F4003F04D0094A02FB03F363
:1053E0000360C0E7034A02FB03F30360BBE700BFAF
:1053F0000010024000127A00D4010020D0010020E9
:1054000000093D0021B1054A936918439061704736
:10541000024A936923EA000090617047001002403D
:1054200021B1054AD3691843D0617047024AD36954
:1054300023EA0000D06170470010024021B1054A04
:10544000D3681843D0607047024AD36823EA00004B
:10545000D06070470010024021B1054A136918431B
:1054600010617047024A136923EA00001061704717
:1054700000100240002103E00A4B5B584350043106
:1054800009480A4B42189A42F6D3094A02E000231F
:1054900042F8043B074B9A42F9D300F07DF800F044
:1054A000C3F870478062000800000020E40100207B
:1054B000E401002014020020FEE77047FEE7FEE74B
:1054C000FEE7FEE7704770477047704782B00023E1
:1054D000019300932C4A136843F4803313602A4BE2
:1054E0001B6803F400330093019B01330193009B7D
:1054F0001BB9019BB3F5A06FF1D1234B1B6813F4CB
:10550000003F06D001230093009B012B04D002B082
:10551000704700230093F7E71C4B1A6842F0100213
:105520001A601A6822F003021A601A6842F0020236
:105530001A60A3F580535A685A605A685A605A68CC
:1055400042F480625A605A6822F47C125A605A68A7
:1055500042F4E8125A601A6842F080721A600A4BEC
:105560001B6813F0007FFAD0074B5A6822F0030241
:105570005A605A6842F002025A60034B5B6803F0BB
:105580000C03082BF9D1C2E70010024000200240B2
:1055900008B5FFF79BFF08BD08B5104B1A6842F02D
:1055A00001021A6059680E4A0A405A601A6822F0CD
:1055B000847222F480321A601A6822F480221A60FF
:1055C0005A6822F4FE025A604FF41F029A60FFF7F5
:1055D000DFFF044B4FF000629A6008BD00100240EC
:1055E0000000FFF800ED00E000EBC000C0004FF04D
:1055F000E023586100229A6105221A614FF0E023EE
:105600001B6913F4803FF9D04FF0E02304221A61A4
:10561000704710B504E04FF47A70FFF7E5FF2046BD
:10562000441E0028F7D110BD08B5FFF741FCFFF775
:10563000B5F90B4A01210846FFF74CFC0423094A3F
:10564000128807210120FFF756FCFFF7F3F9024605
:10565000044B1880042307210220FFF74CFCF4E7D9
:105660002C61000812020020F8B500BFF8BC08BC8D
:105670009E467047F8B500BFF8BC08BC9E46704710
:1056800004000020000000000500000019000000D8
:105690007D00000000000000000000000000F03F5E
:1056A00000000000000024400000000000005940FD
:1056B0000000000000408F40000000000088C34050
:1056C00000000000006AF8400000000080842E41C5
:1056D00000000000D01263410000000084D7974111
:1056E0000000000065CDCD41000000205FA0024217
:1056F000000000E876483742000000A2941A6D428C
:10570000000040E59C30A2420000901EC4BCD6427E
:1057100000003426F56B0C430080E03779C3414329
:1057200000A0D8855734764300C84E676DC1AB439F
:10573000003D9160E458E143408CB5781DAF1544BD
:1057400050EFE2D6E41A4B4492D54D06CFF0804498
:10575000F64AE1C7022DB544B49DD9794378EA44AD
:10576000BC89D897B2D29C3C33A7A8D523F6493937
:105770003DA7F444FD0FA5329D978CCF08BA5B2559
:10578000436FAC642806C80A0080E03779C3414300
:10579000176E05B5B5B89346F5F93FE9034F384D97
:1057A000321D30F94877825A3CBF737FDD4F157543
:1057B00000202020202020202020282828282820E1
:1057C00020202020202020202020202020202020D9
:1057D0002088101010101010101010101010101041
:1057E0001004040404040404040404101010101031
:1057F00010104141414141410101010101010101FB
:10580000010101010101010101010101101010104C
:1058100010104242424242420202020202020202CC
:105820000202020202020202020202021010101020
:105830002000000000000000000000000000000048
:105840000000000000000000000000000000000058
:105850000000000000000000000000000000000048
:105860000000000000000000000000000000000038
:105870000000000000000000000000000000000028
:105880000000000000000000000000000000000018
:105890000000000000000000000000000000000008
:1058A00000000000000000000000000000000000F8
:1058B00000000000000000000000000000000000E8
:1058C00000000000000000000000000000000000D8
:1058D00000000000000000000000000000000000C8
:1058E00000000000000000000000000000000000B8
:1058F00000000000000000000000000000000000A8
:105900000000000000000000000000000000000097
:10591000000000000000000000000000002F000058
:1059200000000700070000147F147F1400242A7F62
:105930002A120062640813230036495522500000E1
:105940000503000000001C224100000041221C0051
:105950000014083E08140008083E0808000000A0D3
:1059600060000008080808080000606000000020CF
:1059700010080402003E5149453E0000427F4000AD
:10598000004261514946002141454B310018141233
:105990007F10002745454539003C4A494930000100
:1059A0007109050300364949493600064949291E4F
:1059B00000003636000000005636000000081422B1
:1059C00041000014141414140000412214080002B1
:1059D0000151090600324959513E007C1211127CD6
:1059E000007F49494936003E41414122007F414103
:1059F000221C007F49494941007F09090901003EF5
:105A00004149497A007F0808087F0000417F410032
:105A1000002040413F01007F08142241007F4040A8
:105A20004040007F020C027F007F0408107F003E90
:105A30004141413E007F09090906003E4151215E76
:105A4000007F091929460046494949310001017F73
:105A50000101003F4040403F001F2040201F003F09
:105A60004038403F006314081463000708700807BB
:105A700000615149454300007F41410000552A55CE
:105A80002A55000041417F00000402010204004049
:105A9000404040400000010204000020545454786B
:105AA000007F48444438003844444420003844448B
:105AB000487F00385454541800087E090102001829
:105AC000A4A4A47C007F080404780000447D400066
:105AD000004080847D00007F102844000000417F4A
